:100000000C9434000C943E000C943E000C943E0082
:100010000C943E000C943E000C943E000C943E0068
:100020000C943E000C943E000C943E000C94400056
:100030000C943E000C943E000C943E000C943E0048
:100040000C943E000C943E000C943E000C943E0038
:100050000C943E000C943E000C943E000C943E0028
:100060000C943E000C943E0011241FBECFEFD8E04C
:10007000DEBFCDBF0E946B000C9494000C94000076
:100080001F920F920FB60F921124189A0F900FBE65
:100090000F901F901895E1E8F0E090819C609083AC
:1000A000EFE6F0E0908192609083282F30E0322FCD
:1000B0002227330F032E000C440B550B60E074E233
:1000C00084EF90E00E947200215031093093890042
:1000D000209388000895209A57988AE00E944B0048
:1000E0007894FFCFA1E21A2EAA1BBB1BFD010DC005
:1000F000AA1FBB1FEE1FFF1FA217B307E407F507D8
:1001000020F0A21BB30BE40BF50B661F771F881FB3
:10011000991F1A9469F760957095809590959B0149
:0C012000AC01BD01CF010895F894FFCFA1
:00000001FF
