S019000041726475696E6F5F4156525F45705F30362E7372656318
S11300000C9434000C943E000C943E000C943E007E
S11300100C943E000C943E000C943E000C943E0064
S11300200C943E000C943E000C943E000C943E0054
S11300300C943E000C9440000C943E000C943E0042
S11300400C943E000C943E000C943E000C943E0034
S11300500C943E000C943E000C943E000C943E0024
S11300600C943E000C943E0011241FBECFEFD8E048
S1130070DEBFCDBF0E944B000C9463000C940000C3
S11300801F920F920FB60F921124189A0F900FBE61
S11300900F901F901895209A5798E1E8F0E080811E
S11300A084608083EFE6F0E0808181608083EDE608
S11300B0F0E0808180688083E8E6F0E080818460FD
S10D00C080837894FFCFF894FFCFFB
S9030000FC
