:100000000C9434000C943E000C943E000C943E0082
:100010000C943E000C943E000C943E000C943E0068
:100020000C943E000C943E000C943E000C94400056
:100030000C944B000C943E000C943E000C943E003B
:100040000C943E000C943E000C943E000C943E0038
:100050000C943E000C943E000C943E000C943E0028
:100060000C943E000C943E0011241FBECFEFD8E04C
:10007000DEBFCDBF0E946D000C9473000C94000095
:100080001F920F920FB60F921124289A0F900FBE55
:100090000F901F9018951F920F920FB60F92112478
:1000A00028980F900FBE0F901F901895E1E8F0E090
:1000B000808189608083EFE6F0E0808186608083C4
:1000C00080E293E0909389008093880084E690E03A
:1000D00090938B0080938A000895209A57980E94ED
:0A00E00056007894FFCFF894FFCF8C
:00000001FF
