S019000041726475696E6F5F4156525F45705F30342E737265631A
S11300000C9434000C943E000C943E000C943E007E
S11300100C943E000C9440000C943E000C943E0062
S11300200C943E000C943E000C943E000C943E0054
S11300300C943E000C943E000C943E000C943E0044
S11300400C943E000C943E000C943E000C943E0034
S11300500C943E000C943E000C943E000C943E0024
S11300600C943E000C943E0011241FBECFEFD8E048
S1130070DEBFCDBF0E944F000C945D000C940000C5
S11300801F920F920FB60F9211244F9902C0289A13
S113009001C028980F900FBE0F901F901895209ABA
S11300A05798EDE6F0E0808180688083E8E6F0E030
S11100B08081846080837894FFCFF894FFCF22
S9030000FC
