S019000041726475696E6F5F4156525F45705F30332E737265631B
S11300000C9434000C943E000C943E000C943E007E
S11300100C943E000C943E000C943E000C943E0064
S11300200C943E000C943E000C943E000C943E0054
S11300300C943E000C943E000C943E000C943E0044
S11300400C943E000C943E000C943E000C943E0034
S11300500C943E000C943E000C943E000C943E0024
S11300600C943E000C943E0011241FBECFEFD8E048
S1130070DEBFCDBF0E9440000C9448000C940000E9
S1130080209A57984F9902C0289AFCCF2898FACF03
S1070090F894FFCF0E
S9030000FC
